{
  "_format": "hh-sol-artifact-1",
  "contractName": "ChessGame",
  "sourceName": "src/contracts/ChessGame.sol",
  "abi": [
    {
      "inputs": [
        {
          "internalType": "address",
          "name": "_owner",
          "type": "address"
        },
        {
          "internalType": "address",
          "name": "_gameManagerAddress",
          "type": "address"
        },
        {
          "internalType": "address",
          "name": "_playerWhite",
          "type": "address"
        },
        {
          "internalType": "address",
          "name": "_playerBlack",
          "type": "address"
        }
      ],
      "stateMutability": "nonpayable",
      "type": "constructor"
    },
    {
      "anonymous": false,
      "inputs": [
        {
          "indexed": false,
          "internalType": "address",
          "name": "winner",
          "type": "address"
        }
      ],
      "name": "GameOver",
      "type": "event"
    },
    {
      "anonymous": false,
      "inputs": [],
      "name": "GameStarted",
      "type": "event"
    },
    {
      "anonymous": false,
      "inputs": [
        {
          "indexed": true,
          "internalType": "address",
          "name": "game",
          "type": "address"
        },
        {
          "indexed": true,
          "internalType": "address",
          "name": "player",
          "type": "address"
        },
        {
          "components": [
            {
              "internalType": "uint256",
              "name": "pieceId",
              "type": "uint256"
            },
            {
              "internalType": "uint256",
              "name": "publicCommitment",
              "type": "uint256"
            }
          ],
          "indexed": false,
          "internalType": "struct ChessMove",
          "name": "move",
          "type": "tuple"
        },
        {
          "indexed": false,
          "internalType": "bool",
          "name": "playerIsWhite",
          "type": "bool"
        }
      ],
      "name": "MoveMade",
      "type": "event"
    },
    {
      "anonymous": false,
      "inputs": [
        {
          "indexed": false,
          "internalType": "address",
          "name": "pieceOwner",
          "type": "address"
        },
        {
          "components": [
            {
              "internalType": "uint256",
              "name": "pieceId",
              "type": "uint256"
            },
            {
              "internalType": "uint256",
              "name": "tokenId",
              "type": "uint256"
            },
            {
              "internalType": "enum ChessPieceClass",
              "name": "pieceClass",
              "type": "uint8"
            },
            {
              "internalType": "uint256",
              "name": "publicCommitment",
              "type": "uint256"
            },
            {
              "components": [
                {
                  "internalType": "uint256",
                  "name": "x",
                  "type": "uint256"
                },
                {
                  "internalType": "uint256",
                  "name": "y",
                  "type": "uint256"
                }
              ],
              "internalType": "struct Coordinate",
              "name": "pieceCoords",
              "type": "tuple"
            },
            {
              "internalType": "bool",
              "name": "isDead",
              "type": "bool"
            },
            {
              "internalType": "uint256",
              "name": "updatedAt",
              "type": "uint256"
            }
          ],
          "indexed": false,
          "internalType": "struct Piece",
          "name": "piece",
          "type": "tuple"
        }
      ],
      "name": "PieceCaptured",
      "type": "event"
    },
    {
      "anonymous": false,
      "inputs": [
        {
          "indexed": true,
          "internalType": "address",
          "name": "game",
          "type": "address"
        },
        {
          "indexed": true,
          "internalType": "address",
          "name": "player",
          "type": "address"
        },
        {
          "indexed": true,
          "internalType": "uint256",
          "name": "pieceId",
          "type": "uint256"
        },
        {
          "components": [
            {
              "internalType": "uint256",
              "name": "x",
              "type": "uint256"
            },
            {
              "internalType": "uint256",
              "name": "y",
              "type": "uint256"
            }
          ],
          "indexed": false,
          "internalType": "struct Coordinate",
          "name": "coord",
          "type": "tuple"
        }
      ],
      "name": "PiecePositionRevealed",
      "type": "event"
    },
    {
      "anonymous": false,
      "inputs": [
        {
          "indexed": true,
          "internalType": "address",
          "name": "player",
          "type": "address"
        },
        {
          "indexed": false,
          "internalType": "uint256[]",
          "name": "pieceIds",
          "type": "uint256[]"
        }
      ],
      "name": "PlayerHasPlacedPieces",
      "type": "event"
    },
    {
      "inputs": [],
      "name": "BOARD_HEIGHT",
      "outputs": [
        {
          "internalType": "uint256",
          "name": "",
          "type": "uint256"
        }
      ],
      "stateMutability": "view",
      "type": "function"
    },
    {
      "inputs": [],
      "name": "BOARD_WIDTH",
      "outputs": [
        {
          "internalType": "uint256",
          "name": "",
          "type": "uint256"
        }
      ],
      "stateMutability": "view",
      "type": "function"
    },
    {
      "inputs": [],
      "name": "PIECES_PER_PLAYER",
      "outputs": [
        {
          "internalType": "uint256",
          "name": "",
          "type": "uint256"
        }
      ],
      "stateMutability": "view",
      "type": "function"
    },
    {
      "inputs": [],
      "name": "TOTAL_SQUARES",
      "outputs": [
        {
          "internalType": "uint256",
          "name": "",
          "type": "uint256"
        }
      ],
      "stateMutability": "view",
      "type": "function"
    },
    {
      "inputs": [],
      "name": "UNDEFINED_COORD",
      "outputs": [
        {
          "internalType": "uint256",
          "name": "",
          "type": "uint256"
        }
      ],
      "stateMutability": "view",
      "type": "function"
    },
    {
      "inputs": [],
      "name": "attackingPlayer",
      "outputs": [
        {
          "internalType": "address",
          "name": "",
          "type": "address"
        }
      ],
      "stateMutability": "view",
      "type": "function"
    },
    {
      "inputs": [
        {
          "internalType": "address",
          "name": "",
          "type": "address"
        },
        {
          "internalType": "uint256",
          "name": "",
          "type": "uint256"
        }
      ],
      "name": "capturedPieces",
      "outputs": [
        {
          "internalType": "bool",
          "name": "",
          "type": "bool"
        }
      ],
      "stateMutability": "view",
      "type": "function"
    },
    {
      "inputs": [
        {
          "internalType": "address",
          "name": "_contractAddress",
          "type": "address"
        }
      ],
      "name": "changePieceMotionVerifier",
      "outputs": [],
      "stateMutability": "nonpayable",
      "type": "function"
    },
    {
      "inputs": [
        {
          "internalType": "address",
          "name": "_contractAddress",
          "type": "address"
        }
      ],
      "name": "changePlayerVisionVerifier",
      "outputs": [],
      "stateMutability": "nonpayable",
      "type": "function"
    },
    {
      "inputs": [
        {
          "internalType": "address",
          "name": "_contractAddress",
          "type": "address"
        }
      ],
      "name": "changeRevealBoardPositionVerifier",
      "outputs": [],
      "stateMutability": "nonpayable",
      "type": "function"
    },
    {
      "inputs": [],
      "name": "defendingPlayer",
      "outputs": [
        {
          "internalType": "address",
          "name": "",
          "type": "address"
        }
      ],
      "stateMutability": "view",
      "type": "function"
    },
    {
      "inputs": [],
      "name": "gameManagerAddress",
      "outputs": [
        {
          "internalType": "address",
          "name": "",
          "type": "address"
        }
      ],
      "stateMutability": "view",
      "type": "function"
    },
    {
      "inputs": [
        {
          "internalType": "address",
          "name": "",
          "type": "address"
        }
      ],
      "name": "hasPlayedTurn",
      "outputs": [
        {
          "internalType": "bool",
          "name": "",
          "type": "bool"
        }
      ],
      "stateMutability": "view",
      "type": "function"
    },
    {
      "inputs": [
        {
          "internalType": "address",
          "name": "",
          "type": "address"
        }
      ],
      "name": "hasReportedPositions",
      "outputs": [
        {
          "internalType": "bool",
          "name": "",
          "type": "bool"
        }
      ],
      "stateMutability": "view",
      "type": "function"
    },
    {
      "inputs": [
        {
          "internalType": "address",
          "name": "",
          "type": "address"
        }
      ],
      "name": "hasReportedVision",
      "outputs": [
        {
          "internalType": "bool",
          "name": "",
          "type": "bool"
        }
      ],
      "stateMutability": "view",
      "type": "function"
    },
    {
      "inputs": [],
      "name": "isGameOver",
      "outputs": [
        {
          "internalType": "bool",
          "name": "",
          "type": "bool"
        }
      ],
      "stateMutability": "view",
      "type": "function"
    },
    {
      "inputs": [],
      "name": "isGameStarted",
      "outputs": [
        {
          "internalType": "bool",
          "name": "",
          "type": "bool"
        }
      ],
      "stateMutability": "view",
      "type": "function"
    },
    {
      "inputs": [
        {
          "internalType": "address",
          "name": "_address",
          "type": "address"
        }
      ],
      "name": "isPlayerWhite",
      "outputs": [
        {
          "internalType": "bool",
          "name": "",
          "type": "bool"
        }
      ],
      "stateMutability": "view",
      "type": "function"
    },
    {
      "inputs": [],
      "name": "isWhitePlayerTurn",
      "outputs": [
        {
          "internalType": "bool",
          "name": "",
          "type": "bool"
        }
      ],
      "stateMutability": "view",
      "type": "function"
    },
    {
      "inputs": [
        {
          "internalType": "uint256[24]",
          "name": "_proof",
          "type": "uint256[24]"
        },
        {
          "internalType": "uint256[2]",
          "name": "_pubSignals",
          "type": "uint256[2]"
        }
      ],
      "name": "makeMove",
      "outputs": [],
      "stateMutability": "nonpayable",
      "type": "function"
    },
    {
      "inputs": [],
      "name": "markTurnAsOver",
      "outputs": [],
      "stateMutability": "nonpayable",
      "type": "function"
    },
    {
      "inputs": [],
      "name": "owner",
      "outputs": [
        {
          "internalType": "address",
          "name": "",
          "type": "address"
        }
      ],
      "stateMutability": "view",
      "type": "function"
    },
    {
      "inputs": [
        {
          "internalType": "address",
          "name": "",
          "type": "address"
        },
        {
          "internalType": "uint256",
          "name": "",
          "type": "uint256"
        },
        {
          "internalType": "uint256",
          "name": "",
          "type": "uint256"
        }
      ],
      "name": "pieceCoordinates",
      "outputs": [
        {
          "internalType": "uint256",
          "name": "",
          "type": "uint256"
        }
      ],
      "stateMutability": "view",
      "type": "function"
    },
    {
      "inputs": [],
      "name": "pieceMotionVerifier",
      "outputs": [
        {
          "internalType": "address",
          "name": "",
          "type": "address"
        }
      ],
      "stateMutability": "view",
      "type": "function"
    },
    {
      "inputs": [
        {
          "components": [
            {
              "internalType": "uint256",
              "name": "pieceId",
              "type": "uint256"
            },
            {
              "internalType": "uint256",
              "name": "tokenId",
              "type": "uint256"
            },
            {
              "internalType": "enum ChessPieceClass",
              "name": "pieceClass",
              "type": "uint8"
            },
            {
              "internalType": "uint256",
              "name": "publicCommitment",
              "type": "uint256"
            },
            {
              "components": [
                {
                  "internalType": "uint256",
                  "name": "x",
                  "type": "uint256"
                },
                {
                  "internalType": "uint256",
                  "name": "y",
                  "type": "uint256"
                }
              ],
              "internalType": "struct Coordinate",
              "name": "pieceCoords",
              "type": "tuple"
            },
            {
              "internalType": "bool",
              "name": "isDead",
              "type": "bool"
            },
            {
              "internalType": "uint256",
              "name": "updatedAt",
              "type": "uint256"
            }
          ],
          "internalType": "struct Piece[]",
          "name": "pieces",
          "type": "tuple[]"
        }
      ],
      "name": "placePieces",
      "outputs": [],
      "stateMutability": "nonpayable",
      "type": "function"
    },
    {
      "inputs": [
        {
          "internalType": "address",
          "name": "",
          "type": "address"
        },
        {
          "internalType": "uint256",
          "name": "",
          "type": "uint256"
        }
      ],
      "name": "playerAllocations",
      "outputs": [
        {
          "internalType": "enum ChessPieceClass",
          "name": "pieceClass",
          "type": "uint8"
        },
        {
          "internalType": "uint256",
          "name": "tokenId",
          "type": "uint256"
        },
        {
          "internalType": "uint256",
          "name": "count",
          "type": "uint256"
        }
      ],
      "stateMutability": "view",
      "type": "function"
    },
    {
      "inputs": [],
      "name": "playerBlack",
      "outputs": [
        {
          "internalType": "address",
          "name": "",
          "type": "address"
        }
      ],
      "stateMutability": "view",
      "type": "function"
    },
    {
      "inputs": [
        {
          "internalType": "address",
          "name": "",
          "type": "address"
        },
        {
          "internalType": "uint256",
          "name": "",
          "type": "uint256"
        }
      ],
      "name": "playerBoardVision",
      "outputs": [
        {
          "internalType": "uint256",
          "name": "",
          "type": "uint256"
        }
      ],
      "stateMutability": "view",
      "type": "function"
    },
    {
      "inputs": [
        {
          "internalType": "address",
          "name": "",
          "type": "address"
        }
      ],
      "name": "playerCommitment",
      "outputs": [
        {
          "internalType": "bytes32",
          "name": "",
          "type": "bytes32"
        }
      ],
      "stateMutability": "view",
      "type": "function"
    },
    {
      "inputs": [
        {
          "internalType": "address",
          "name": "_player",
          "type": "address"
        },
        {
          "internalType": "uint256",
          "name": "_pieceId",
          "type": "uint256"
        }
      ],
      "name": "playerHasPiece",
      "outputs": [
        {
          "internalType": "bool",
          "name": "",
          "type": "bool"
        }
      ],
      "stateMutability": "view",
      "type": "function"
    },
    {
      "inputs": [
        {
          "internalType": "address",
          "name": "",
          "type": "address"
        }
      ],
      "name": "playerHasPlacedPieces",
      "outputs": [
        {
          "internalType": "bool",
          "name": "",
          "type": "bool"
        }
      ],
      "stateMutability": "view",
      "type": "function"
    },
    {
      "inputs": [
        {
          "internalType": "address",
          "name": "",
          "type": "address"
        },
        {
          "internalType": "uint256",
          "name": "",
          "type": "uint256"
        }
      ],
      "name": "playerMoves",
      "outputs": [
        {
          "internalType": "uint256",
          "name": "pieceId",
          "type": "uint256"
        },
        {
          "internalType": "uint256",
          "name": "publicCommitment",
          "type": "uint256"
        }
      ],
      "stateMutability": "view",
      "type": "function"
    },
    {
      "inputs": [
        {
          "internalType": "address",
          "name": "",
          "type": "address"
        },
        {
          "internalType": "uint256",
          "name": "",
          "type": "uint256"
        }
      ],
      "name": "playerPieces",
      "outputs": [
        {
          "internalType": "uint256",
          "name": "pieceId",
          "type": "uint256"
        },
        {
          "internalType": "uint256",
          "name": "tokenId",
          "type": "uint256"
        },
        {
          "internalType": "enum ChessPieceClass",
          "name": "pieceClass",
          "type": "uint8"
        },
        {
          "internalType": "uint256",
          "name": "publicCommitment",
          "type": "uint256"
        },
        {
          "components": [
            {
              "internalType": "uint256",
              "name": "x",
              "type": "uint256"
            },
            {
              "internalType": "uint256",
              "name": "y",
              "type": "uint256"
            }
          ],
          "internalType": "struct Coordinate",
          "name": "pieceCoords",
          "type": "tuple"
        },
        {
          "internalType": "bool",
          "name": "isDead",
          "type": "bool"
        },
        {
          "internalType": "uint256",
          "name": "updatedAt",
          "type": "uint256"
        }
      ],
      "stateMutability": "view",
      "type": "function"
    },
    {
      "inputs": [
        {
          "internalType": "address",
          "name": "",
          "type": "address"
        },
        {
          "internalType": "uint256",
          "name": "",
          "type": "uint256"
        }
      ],
      "name": "playerTokenIds",
      "outputs": [
        {
          "internalType": "uint256",
          "name": "",
          "type": "uint256"
        }
      ],
      "stateMutability": "view",
      "type": "function"
    },
    {
      "inputs": [
        {
          "internalType": "address",
          "name": "",
          "type": "address"
        },
        {
          "internalType": "uint256",
          "name": "",
          "type": "uint256"
        }
      ],
      "name": "playerTokenTally",
      "outputs": [
        {
          "internalType": "uint256",
          "name": "",
          "type": "uint256"
        }
      ],
      "stateMutability": "view",
      "type": "function"
    },
    {
      "inputs": [],
      "name": "playerVisionVerifier",
      "outputs": [
        {
          "internalType": "address",
          "name": "",
          "type": "address"
        }
      ],
      "stateMutability": "view",
      "type": "function"
    },
    {
      "inputs": [],
      "name": "playerWhite",
      "outputs": [
        {
          "internalType": "address",
          "name": "",
          "type": "address"
        }
      ],
      "stateMutability": "view",
      "type": "function"
    },
    {
      "inputs": [
        {
          "internalType": "uint256[24]",
          "name": "_proof",
          "type": "uint256[24]"
        },
        {
          "internalType": "uint256[65]",
          "name": "_pubSignals",
          "type": "uint256[65]"
        }
      ],
      "name": "reportBoardVision",
      "outputs": [],
      "stateMutability": "nonpayable",
      "type": "function"
    },
    {
      "inputs": [
        {
          "internalType": "uint256[24]",
          "name": "_proof",
          "type": "uint256[24]"
        },
        {
          "internalType": "uint256[40]",
          "name": "_pubSignals",
          "type": "uint256[40]"
        }
      ],
      "name": "reportPositions",
      "outputs": [],
      "stateMutability": "nonpayable",
      "type": "function"
    },
    {
      "inputs": [],
      "name": "revealBoardPositionVerifier",
      "outputs": [
        {
          "internalType": "address",
          "name": "",
          "type": "address"
        }
      ],
      "stateMutability": "view",
      "type": "function"
    },
    {
      "inputs": [
        {
          "internalType": "address",
          "name": "player",
          "type": "address"
        },
        {
          "components": [
            {
              "internalType": "enum ChessPieceClass",
              "name": "pieceClass",
              "type": "uint8"
            },
            {
              "internalType": "uint256",
              "name": "tokenId",
              "type": "uint256"
            },
            {
              "internalType": "uint256",
              "name": "count",
              "type": "uint256"
            }
          ],
          "internalType": "struct PieceSelection[]",
          "name": "pieces",
          "type": "tuple[]"
        }
      ],
      "name": "setPlayerAllocation",
      "outputs": [],
      "stateMutability": "nonpayable",
      "type": "function"
    },
    {
      "inputs": [],
      "name": "winner",
      "outputs": [
        {
          "internalType": "address",
          "name": "",
          "type": "address"
        }
      ],
      "stateMutability": "view",
      "type": "function"
    }
  ],
  "bytecode": "0x608034620000db57601f620021e738819003918201601f19168301916001600160401b03831184841017620000e057808492608094604052833981010312620000db576200004d81620000f6565b6200005b60208301620000f6565b916200007860606200007060408401620000f6565b9201620000f6565b9260018060a01b03918280928160018060a01b031996168660015416176001551684600254161760025516928383600354161760035516918282600454161760045581600854161760085560095416176009556040516120db90816200010c8239f35b600080fd5b634e487b7160e01b600052604160045260246000fd5b51906001600160a01b0382168203620000db5756fe608080604052600436101561001357600080fd5b60e060003560e01c91826308f876af14611ca3575081630e04a7d814611c805781630ed48a4614611c385781630ef3b70114611bf957816311db0c6a14611b9c57816322f976ff14611b3e578163279f715914611b155781632bae34bd146117fd57816348ad9baf146117d45781634cee66d11461177e5781635a12336f14611755578163639f937f146117395781636d1063641461167d57816375c153c314610e7a5781638cf7ddfa146116205781638da5cb5b146115f7578163903d74d21461158e57816394cb39b01461156557816396a09e9b1461151b5781639a592b31146114c45781639ff561bc1461149b578163a37470dc14611472578163a649290914610f3b578163a91536e914610ede578163b3868caf14610e9f578163c0d0448914610e7f578163c2fdc09b14610e7a578163c315432a14610e5f578163cbccecf914610e12578163cd0d136114610a9e578163cfe3574914610946578163d141c4591461090c578163d1a4406a146108e5578163d647fa88146108bc578163d9e873571461074a578163db12ada514610715578163db204e7b146106d6578163dcb7cddf14610697578163dfbf53ae1461066a578163ef507ca914610641578163fc39d96d1461021a575063fc55e7b7146101f057600080fd5b3461021557600036600319011261021557602061020b612078565b6040519015158152f35b600080fd5b3461021557600036600319011261021557600380546001600160a01b039081163381148015610634575b61024d90611e94565b6000526020600b815260ff9182604060002054168061061e575b1561059d5760005b6008808210156104c05760005b81811061028d57505060010161026f565b838298929793975416908160005260108087526040600020896000528752604060002082600052875260406000205492600991878354169081600052895260406000208b600052895260406000208460005289526040600020549082600052600f92838b526040600020876000528b526103136006978d89604060002001541692612051565b90816104ae575b816104a5575b5061033a575b50505050600191500196909695919561027c565b6000526013895260406000208160005289528760406000209360019460ff1990868282541617905582825416600052848c526040600020846000528c5285886040600020019182541617905554169182600052895260406000209060005288527fcdc7ede5c7292c75165f17d21fd10b8504aab119f47606206441245cceeb574b61012060406000209260405190815283548b8201528484015460408201528b80600286015416976103ef606084018a611d49565b8a8601546080840152600486015460a0840152600586015460c084015285015416151588820152600780940154610100820152a183101561048f57866001931561043b575b8180610326565b7ff556ad7790e70877edcf3b3bb441255def8a405faa0dfdb005a02fa8e557bca991600054908c54918d836101008960a81b03911b1690878060a81b03191617176000558760405191168152a18986610434565b634e487b7160e01b600052602160045260246000fd5b9050158e610320565b90506104ba8383612051565b9061031a565b5050908160035416600052600b815260406000209260ff1993848154169055826004541660005260406000208481541690558260035416600052600c8252604060002084815416905582600454166000526040600020848154169055600954600854908460018060a01b0319918184168382161760095516911617600855600d836003541692836000525280604060002054169081610586575b5061056157005b6000526040600020828154169055600454166000526040600020908154169055600080f35b90508260045416600052604060002054168461055a565b60405162461bcd60e51b815260048101839052604d60248201527f5475726e2063616e206f6e6c79206265206d61726b656420617320636f6d706c60448201527f65746564207768656e20626f746820706c6179657273207265706f727420706960648201526c65636520706f736974696f6e7360981b608482015260a490fd5b5080600454166000528260406000205416610267565b5060045482163314610244565b34610215576000366003190112610215576008546040516001600160a01b039091168152602090f35b346102155760003660031901126102155760005460405160089190911c6001600160a01b03168152602090f35b34610215576020366003190112610215576001600160a01b036106b8611cbd565b166000526016602052602060ff604060002054166040519015158152f35b34610215576020366003190112610215576001600160a01b036106f7611cbd565b16600052600c602052602060ff604060002054166040519015158152f35b34610215576020366003190112610215576020610730611cbd565b6003546040516001600160a01b0392831691909216148152f35b3461021557610b203660031901126102155761030436811161021557610b243681116102155761078061077b611f66565b611e22565b6003546001600160a01b0391908216331480156108af575b6107a190611e94565b816008541660005260208092600d82526107c260ff60406000205416611fa5565b600654166040519283809263086f605360e11b825261030060048084013761082088808401375afa80156108a35761080291600091610876575b50612002565b60005b6040811061082857336000908152600c835260409020805460ff19166001179055005b604181101561086057600190336000526011835261085a61084d826040600020611d8a565b8360051b87013591611f36565b01610805565b634e487b7160e01b600052603260045260246000fd5b6108969150833d851161089c575b61088e8183611d26565b810190611ef9565b846107fc565b503d610884565b6040513d6000823e3d90fd5b5060045482163314610798565b34610215576000366003190112610215576004546040516001600160a01b039091168152602090f35b3461021557604036600319011261021557602061020b610903611cbd565b60243590612051565b34610215576020366003190112610215576001600160a01b0361092d611cbd565b16600052600e6020526020604060002054604051908152f35b346102155760403660031901126102155761095f611cbd565b6024803591906001600160401b03808411610215573660238501121561021557836004013590811161021557606093366024606084028301011161021557600180549095906001600160a01b0390811633148015610a91575b6109c190611d9a565b6109c9611f66565b610a325760009593959316925b8581106109df57005b8181028301908460005260206012815260406000206044840135918260005252604060002090878401356007811015610215578a94600292610a2360649386611f4e565b868501550135910155016109d6565b60405162461bcd60e51b815260206004820152603160248201527f416c6c6f636174696f6e2063616e206f6e6c7920626520736574206265666f7260448201527065207468652067616d652073746172747360781b6064820152608490fd5b50600254811633146109b8565b346102155761080036600319011261021557610304368111610215576108049036821161021557610ad061077b611f66565b6003546001600160a01b039081163381148015610e05575b610af190611e94565b8160085416600052602092600d8452610b1160ff60406000205416611fa5565b83610500600796856007541693604051948593849263667e104760e11b8452610300600480860137808401375afa80156108a357610b5691600091610de85750612002565b600052600c825260ff604060002054169081610dd0575b5015610d575760405191610b8083611d0a565b600a808452610140368486013760005b818110610d39575050600a5b60148110610bbf57336000908152600b845260409020805460ff19166001179055005b600180820190818311610cc4576009198301838111610cc457610be3911c86611f22565b5190610bf8610bf18461203e565b359161203e565b359080151580610d30575b15610cda5760405191610c1583611cef565b8183528683019181835233600052600f8089526040600020866000528952610c44856004604060002001611f11565b33600052885260406000208560005288524287604060002001553360005260108852604060002090600052875260406000209060005286528260406000205560405191518252518582015233907ff7bbbfd230bb670cd9f6deb90509db1f76be7c8c90195a574dfe534b41f45fc960403092a46002810180911115610b9c575b634e487b7160e01b600052601160045260246000fd5b60405162461bcd60e51b815260048101879052602860248201527f506965636520636f6f7264696e61746573206d75737420626520677265617465604482015267072207468616e20360c41b6064820152608490fd5b50811515610c03565b80610d4560019261203e565b35610d508288611f22565b5201610b90565b60a4906040519062461bcd60e51b82526004820152604660248201527f426f746820706c6179657273206d757374207265706f7274207468656972207660448201527f6973696f6e206265666f726520706f736974696f6e732063616e2062652072656064820152651c1bdc9d195960d21b6084820152fd5b90506004541660005260ff6040600020541683610b6d565b610dff9150853d871161089c5761088e8183611d26565b866107fc565b5060045482163314610ae8565b34610215576040366003190112610215576001600160a01b03610e33611cbd565b1660005260136020526040600020602435600052602052602060ff604060002054166040519015158152f35b3461021557600036600319011261021557602061020b611f66565b611d56565b346102155760003660031901126102155760206040516402540be4008152f35b34610215576020366003190112610215576001600160a01b03610ec0611cbd565b16600052600d602052602060ff604060002054166040519015158152f35b3461021557602036600319011261021557610ef7611cbd565b6001546001600160a01b039190821633148015610f2e575b610f1890611d9a565b1660018060a01b03196007541617600755600080f35b5060025482163314610f0f565b34610215576020366003190112610215576001600160401b03600435811061021557366023600435011215610215576004356004013511610215573660246004356004013560081b60043501011161021557600354610faf90336001600160a01b0391821614908115611464575b50611e94565b610fb7611f66565b61140f57600a60043560040135036113c05733600052601660205260ff6040600020541661137c57604051610feb81611d0a565b600a8152602081019061014036833760005b600435600401358110611154575060005b336000526015602052604060002080548210156110d8578161102f91611d72565b90549060031b1c336000526012602052604060002081600052602052600260406000200154903360005260146020526040600020906000526020526040600020541161107d5760010161100e565b60405162461bcd60e51b815260206004820152602d60248201527f506c616365642070696563657320646f206e6f74206d6174636820706c61796560448201526c391030b63637b1b0ba34b7b71760991b6064820152608490fd5b5050604051906020820190602083525180915260408201929060005b81811061113e57337fb7330d405e10a820996e70b27321822b3701fca114ab9c9dc9a5c8c29e68b2b185870386a2336000908152601660205260409020805460ff19166001179055005b82518552602094850194909201916001016110f4565b604460248260081b6004350101351561133e5760248260081b60043501013561117d8385611f22565b523360005260156020526040600020805490600160401b82101561132857816111ae9160016111bf94018155611d72565b838560081b60043501013591611f36565b336000908152600f60209081526040808320600435600887901b0160248101358086529190935292209182558281013560018301556064013560078110156102155761120e9060028301611f4e565b60048035600885901b016084810135600384015560a48101359183019190915560c4810135600583015560e401359081151582036102155760ff199160ff836006840154169115151617600682015560076101048560081b6004350101359101556112b960405161127e81611cef565b6402540be400808252602082015233600052600f602052604060002060248660081b6004350101356000526020526004604060002001611f11565b336000818152600f60209081526040808320600435600889901b0160248101358552908352818420600681018054909716909655426007909601959095559282526014815282822094909301358152929091529020805491906000198314610cc4576001809301905501610ffd565b634e487b7160e01b600052604160045260246000fd5b6064907650696563652049442063616e6e6f74206265207a65726f60481b6040519162461bcd60e51b83526020600484015260176024840152820152fd5b606460405162461bcd60e51b815260206004820152602060248201527f506c617965722068617320616c726561647920706c61636564207069656365736044820152fd5b60405162461bcd60e51b815260206004820152602160248201527f496e76616c6964206e756d626572206f66207069656365732070726f766964656044820152601960fa1b6064820152608490fd5b60405162461bcd60e51b815260206004820152602760248201527f5069656365732063616e206f6e6c7920626520706c616365642061742067616d60448201526619481cdd185c9d60ca1b6064820152608490fd5b905060045416331482610fa9565b34610215576000366003190112610215576003546040516001600160a01b039091168152602090f35b34610215576000366003190112610215576006546040516001600160a01b039091168152602090f35b34610215576040366003190112610215576114dd611cbd565b6001600160a01b031660009081526011602052604090819020602435918210156102155760209161150d91611d8a565b90546040519160031b1c8152f35b3461021557604036600319011261021557611534611cbd565b6001600160a01b03166000908152601560205260409020805460243591908210156102155760209161150d91611d72565b34610215576000366003190112610215576007546040516001600160a01b039091168152602090f35b34610215576040366003190112610215576001600160a01b036115af611cbd565b16600052601260205260406000206024356000526020526060604060002060ff8154169060026001820154910154906115eb6040518094611d49565b60208301526040820152f35b34610215576000366003190112610215576001546040516001600160a01b039091168152602090f35b3461021557602036600319011261021557611639611cbd565b6001546001600160a01b039190821633148015611670575b61165a90611d9a565b1660018060a01b03196005541617600555600080f35b5060025482163314611651565b34610215576040366003190112610215576001600160a01b0361169e611cbd565b16600052600f6020526040600020602435600052602052610100604060002080549060018101549060ff6002820154166003820154604051906116e082611cef565b6004840154825261171a60058501549360208401948552600760ff6006880154169601549660405198895260208901526040880190611d49565b60608601525160808501525160a0840152151560c083015260e0820152f35b3461021557600036600319011261021557602060405160408152f35b34610215576000366003190112610215576002546040516001600160a01b039091168152602090f35b34610215576060366003190112610215576001600160a01b0361179f611cbd565b166000526010602052604060002060243560005260205260406000206044356000526020526020604060002054604051908152f35b34610215576000366003190112610215576009546040516001600160a01b039091168152602090f35b34610215576103403660031901126102155761030436811161021557610344903682116102155761182f61077b611f66565b600354336001600160a01b03918216149290838015611b08575b61185290611e94565b8235926103243594611862612078565b151503611aaf5733600052602092600d845260ff60406000205416611a5c5761188b8633612051565b15611a1757604084918460055416938251948593849263303a760760e21b8452610300600480860137808401375afa9081156108a3576000916119fa575b50156119bb5733600052600f825260406000208460005282528260036040600020015533600052600d82526040600020600160ff19825416179055600a825260406000206040519061191a82611cef565b8582528382018590528054600160401b8110156113285761194091600182018155611cd3565b9190916119a55761195091611f11565b8160405161195d81611cef565b85815201928352600354163314916040519384525190830152604082015233907f62debeb74c1ab2380978ca0b905820774438a053a4a8f5b1da4536f5c3254f5260603092a3005b634e487b7160e01b600052600060045260246000fd5b60405162461bcd60e51b8152600481018390526017602482015276125b9d985b1a59081c1c9bdbd9881cdd589b5a5d1d1959604a1b6044820152606490fd5b611a119150833d851161089c5761088e8183611d26565b856118c9565b60405162461bcd60e51b815260048101859052601f60248201527f506c6179657220646f6573206e6f7420686176652074686973207069656365006044820152606490fd5b60405162461bcd60e51b815260048101859052602560248201527f596f75206861766520616c726561647920706c6179656420666f722074686973604482015264103a3ab93760d91b6064820152608490fd5b60405162461bcd60e51b815260206004820152602b60248201527f4974206973206e6f74207468697320706c617965722773207475726e20746f2060448201526a6d616b652061206d6f766560a81b6064820152608490fd5b5060045481163314611849565b34610215576000366003190112610215576005546040516001600160a01b039091168152602090f35b3461021557604036600319011261021557611b57611cbd565b6001600160a01b03166000908152600a602052604090208054602435919082101561021557604091611b8891611cd3565b506001815491015482519182526020820152f35b3461021557602036600319011261021557611bb5611cbd565b6001546001600160a01b039190821633148015611bec575b611bd690611d9a565b1660018060a01b03196006541617600655600080f35b5060025482163314611bcd565b34610215576020366003190112610215576001600160a01b03611c1a611cbd565b16600052600b602052602060ff604060002054166040519015158152f35b34610215576040366003190112610215576001600160a01b03611c59611cbd565b16600052601460205260406000206024356000526020526020604060002054604051908152f35b3461021557600036600319011261021557602060ff600054166040519015158152f35b346102155760003660031901126102155780600a60209252f35b600435906001600160a01b038216820361021557565b80548210156108605760005260206000209060011b0190600090565b604081019081106001600160401b0382111761132857604052565b61016081019081106001600160401b0382111761132857604052565b601f909101601f19168101906001600160401b0382119082101761132857604052565b90600782101561048f5752565b3461021557600036600319011261021557602060405160088152f35b80548210156108605760005260206000200190600090565b6040821015610860570190600090565b15611da157565b60405162461bcd60e51b815260206004820152604d60248201527f5468697320616374696f6e2063616e206f6e6c7920626520706572666f726d6560448201527f642062792074686520736d61727420636f6e7472616374206f776e6572206f7260648201526c1033b0b6b29036b0b730b3b2b960991b608482015260a490fd5b15611e2957565b60405162461bcd60e51b815260206004820152603d60248201527f5468652067616d65206d7573742068617665207374617274656420746f20626560448201527f2061626c6520746f20636f6d706c657465207468697320616374696f6e0000006064820152608490fd5b15611e9b57565b60405162461bcd60e51b815260206004820152603060248201527f4f6e6c7920706c617965727320696e20746869732067616d652063616e20636160448201526f3636103a3434b990333ab731ba34b7b760811b6064820152608490fd5b90816020910312610215575180151581036102155790565b906020600191805184550151910155565b80518210156108605760209160051b010190565b919082549060031b91821b91600019901b1916179055565b90600781101561048f5760ff80198354169116179055565b6003546001600160a01b0390811660009081526016602052604090205460ff169081611f90575090565b90506004541660005260ff6040600020541690565b15611fac57565b60405162461bcd60e51b815260206004820152602860248201527f41747461636b696e6720706c6179657220686173206e6f7420706c61796564206044820152673337b9103a3ab93760c11b6064820152608490fd5b1561200957565b60405162461bcd60e51b815260206004820152600d60248201526c24b73b30b634b210383937b7b360991b6044820152606490fd5b60288110156108605760051b6103040190565b60018060a01b0316600052600f602052604060002090600052602052604060002054151590565b60018060a01b038060045416600052600a602052604060002054906003541660005260406000205411159056fea26469706673582212201afdacd387c598dc863ea82d0846d97ea9ae3564aeefdaa86a5f9844d3fb050d64736f6c63430008160033",
  "linkReferences": {},
  "deployedLinkReferences": {}
}